{
  "contractName": "Tokens",
  "abi": [
    {
      "inputs": [],
      "stateMutability": "nonpayable",
      "type": "constructor"
    },
    {
      "anonymous": false,
      "inputs": [
        {
          "indexed": true,
          "internalType": "address",
          "name": "account",
          "type": "address"
        },
        {
          "indexed": true,
          "internalType": "address",
          "name": "operator",
          "type": "address"
        },
        {
          "indexed": false,
          "internalType": "bool",
          "name": "approved",
          "type": "bool"
        }
      ],
      "name": "ApprovalForAll",
      "type": "event"
    },
    {
      "anonymous": false,
      "inputs": [
        {
          "indexed": true,
          "internalType": "address",
          "name": "operator",
          "type": "address"
        },
        {
          "indexed": true,
          "internalType": "address",
          "name": "from",
          "type": "address"
        },
        {
          "indexed": true,
          "internalType": "address",
          "name": "to",
          "type": "address"
        },
        {
          "indexed": false,
          "internalType": "uint256[]",
          "name": "ids",
          "type": "uint256[]"
        },
        {
          "indexed": false,
          "internalType": "uint256[]",
          "name": "values",
          "type": "uint256[]"
        }
      ],
      "name": "TransferBatch",
      "type": "event"
    },
    {
      "anonymous": false,
      "inputs": [
        {
          "indexed": true,
          "internalType": "address",
          "name": "operator",
          "type": "address"
        },
        {
          "indexed": true,
          "internalType": "address",
          "name": "from",
          "type": "address"
        },
        {
          "indexed": true,
          "internalType": "address",
          "name": "to",
          "type": "address"
        },
        {
          "indexed": false,
          "internalType": "uint256",
          "name": "id",
          "type": "uint256"
        },
        {
          "indexed": false,
          "internalType": "uint256",
          "name": "value",
          "type": "uint256"
        }
      ],
      "name": "TransferSingle",
      "type": "event"
    },
    {
      "anonymous": false,
      "inputs": [
        {
          "indexed": false,
          "internalType": "string",
          "name": "value",
          "type": "string"
        },
        {
          "indexed": true,
          "internalType": "uint256",
          "name": "id",
          "type": "uint256"
        }
      ],
      "name": "URI",
      "type": "event"
    },
    {
      "inputs": [
        {
          "internalType": "address",
          "name": "account",
          "type": "address"
        },
        {
          "internalType": "uint256",
          "name": "id",
          "type": "uint256"
        }
      ],
      "name": "balanceOf",
      "outputs": [
        {
          "internalType": "uint256",
          "name": "",
          "type": "uint256"
        }
      ],
      "stateMutability": "view",
      "type": "function"
    },
    {
      "inputs": [
        {
          "internalType": "address[]",
          "name": "accounts",
          "type": "address[]"
        },
        {
          "internalType": "uint256[]",
          "name": "ids",
          "type": "uint256[]"
        }
      ],
      "name": "balanceOfBatch",
      "outputs": [
        {
          "internalType": "uint256[]",
          "name": "",
          "type": "uint256[]"
        }
      ],
      "stateMutability": "view",
      "type": "function"
    },
    {
      "inputs": [
        {
          "internalType": "address",
          "name": "account",
          "type": "address"
        },
        {
          "internalType": "address",
          "name": "operator",
          "type": "address"
        }
      ],
      "name": "isApprovedForAll",
      "outputs": [
        {
          "internalType": "bool",
          "name": "",
          "type": "bool"
        }
      ],
      "stateMutability": "view",
      "type": "function"
    },
    {
      "inputs": [
        {
          "internalType": "address",
          "name": "",
          "type": "address"
        },
        {
          "internalType": "uint256",
          "name": "",
          "type": "uint256"
        }
      ],
      "name": "nftlist",
      "outputs": [
        {
          "internalType": "string",
          "name": "",
          "type": "string"
        }
      ],
      "stateMutability": "view",
      "type": "function"
    },
    {
      "inputs": [
        {
          "internalType": "address",
          "name": "from",
          "type": "address"
        },
        {
          "internalType": "address",
          "name": "to",
          "type": "address"
        },
        {
          "internalType": "uint256[]",
          "name": "ids",
          "type": "uint256[]"
        },
        {
          "internalType": "uint256[]",
          "name": "amounts",
          "type": "uint256[]"
        },
        {
          "internalType": "bytes",
          "name": "data",
          "type": "bytes"
        }
      ],
      "name": "safeBatchTransferFrom",
      "outputs": [],
      "stateMutability": "nonpayable",
      "type": "function"
    },
    {
      "inputs": [
        {
          "internalType": "address",
          "name": "from",
          "type": "address"
        },
        {
          "internalType": "address",
          "name": "to",
          "type": "address"
        },
        {
          "internalType": "uint256",
          "name": "id",
          "type": "uint256"
        },
        {
          "internalType": "uint256",
          "name": "amount",
          "type": "uint256"
        },
        {
          "internalType": "bytes",
          "name": "data",
          "type": "bytes"
        }
      ],
      "name": "safeTransferFrom",
      "outputs": [],
      "stateMutability": "nonpayable",
      "type": "function"
    },
    {
      "inputs": [
        {
          "internalType": "address",
          "name": "operator",
          "type": "address"
        },
        {
          "internalType": "bool",
          "name": "approved",
          "type": "bool"
        }
      ],
      "name": "setApprovalForAll",
      "outputs": [],
      "stateMutability": "nonpayable",
      "type": "function"
    },
    {
      "inputs": [
        {
          "internalType": "bytes4",
          "name": "interfaceId",
          "type": "bytes4"
        }
      ],
      "name": "supportsInterface",
      "outputs": [
        {
          "internalType": "bool",
          "name": "",
          "type": "bool"
        }
      ],
      "stateMutability": "view",
      "type": "function"
    },
    {
      "inputs": [
        {
          "internalType": "uint256",
          "name": "",
          "type": "uint256"
        }
      ],
      "name": "uri",
      "outputs": [
        {
          "internalType": "string",
          "name": "",
          "type": "string"
        }
      ],
      "stateMutability": "view",
      "type": "function"
    },
    {
      "inputs": [
        {
          "internalType": "uint256",
          "name": "_id",
          "type": "uint256"
        },
        {
          "internalType": "uint256",
          "name": "_amount",
          "type": "uint256"
        }
      ],
      "name": "mintCoins",
      "outputs": [],
      "stateMutability": "nonpayable",
      "type": "function"
    },
    {
      "inputs": [
        {
          "internalType": "uint256",
          "name": "_tokenId",
          "type": "uint256"
        },
        {
          "internalType": "string",
          "name": "_message",
          "type": "string"
        }
      ],
      "name": "mintNFT",
      "outputs": [],
      "stateMutability": "nonpayable",
      "type": "function"
    },
    {
      "inputs": [
        {
          "internalType": "address",
          "name": "_to",
          "type": "address"
        },
        {
          "internalType": "uint256",
          "name": "_amount",
          "type": "uint256"
        },
        {
          "internalType": "uint256",
          "name": "_id",
          "type": "uint256"
        }
      ],
      "name": "transfer",
      "outputs": [],
      "stateMutability": "nonpayable",
      "type": "function"
    },
    {
      "inputs": [
        {
          "internalType": "uint256",
          "name": "_id",
          "type": "uint256"
        }
      ],
      "name": "balance",
      "outputs": [
        {
          "internalType": "uint256",
          "name": "",
          "type": "uint256"
        }
      ],
      "stateMutability": "view",
      "type": "function"
    },
    {
      "inputs": [
        {
          "internalType": "uint256",
          "name": "_tokenId",
          "type": "uint256"
        }
      ],
      "name": "getNFT",
      "outputs": [
        {
          "internalType": "string",
          "name": "",
          "type": "string"
        }
      ],
      "stateMutability": "view",
      "type": "function"
    }
  ],
  "bytecode": "0x60806040523480156200001157600080fd5b5060405180606001604052806027815260200162002edc602791396200003d816200004460201b60201c565b5062000175565b80600290805190602001906200005c92919062000060565b5050565b8280546200006e9062000110565b90600052602060002090601f016020900481019282620000925760008555620000de565b82601f10620000ad57805160ff1916838001178555620000de565b82800160010185558215620000de579182015b82811115620000dd578251825591602001919060010190620000c0565b5b509050620000ed9190620000f1565b5090565b5b808211156200010c576000816000905550600101620000f2565b5090565b600060028204905060018216806200012957607f821691505b6020821081141562000140576200013f62000146565b5b50919050565b7f4e487b7100000000000000000000000000000000000000000000000000000000600052602260045260246000fd5b612d5780620001856000396000f3fe608060405234801561001057600080fd5b50600436106100e95760003560e01c806347bb89f01161008c578063a22cb46511610066578063a22cb4651461027e578063b87102b81461029a578063e985e9c5146102ca578063f242432a146102fa576100e9565b806347bb89f0146101ee5780634e1273f41461021e578063576f7ea71461024e576100e9565b80630e89341c116100c85780630e89341c1461016a5780631a0c8fa01461019a5780632eb2c2d6146101b657806340e12b79146101d2576100e9565b8062fdd58e146100ee57806301ffc9a71461011e578063095bcdb61461014e575b600080fd5b61010860048036038101906101039190611dff565b610316565b604051610115919061283f565b60405180910390f35b61013860048036038101906101339190611ef6565b6103df565b60405161014591906126a2565b60405180910390f35b61016860048036038101906101639190611e3b565b6104c1565b005b610184600480360381019061017f9190611f48565b6104e2565b60405161019191906126bd565b60405180910390f35b6101b460048036038101906101af9190611f71565b610576565b005b6101d060048036038101906101cb9190611c75565b6105fb565b005b6101ec60048036038101906101e79190611fc5565b61069c565b005b61020860048036038101906102039190611f48565b6106bb565b604051610215919061283f565b60405180910390f35b61023860048036038101906102339190611e8a565b6106ce565b6040516102459190612649565b60405180910390f35b61026860048036038101906102639190611f48565b61087f565b60405161027591906126bd565b60405180910390f35b61029860048036038101906102939190611dc3565b610961565b005b6102b460048036038101906102af9190611dff565b610977565b6040516102c191906126bd565b60405180910390f35b6102e460048036038101906102df9190611c39565b610a24565b6040516102f191906126a2565b60405180910390f35b610314600480360381019061030f9190611d34565b610ab8565b005b60008073ffffffffffffffffffffffffffffffffffffffff168373ffffffffffffffffffffffffffffffffffffffff161415610387576040517f08c379a000000000000000000000000000000000000000000000000000000000815260040161037e9061271f565b60405180910390fd5b60008083815260200190815260200160002060008473ffffffffffffffffffffffffffffffffffffffff1673ffffffffffffffffffffffffffffffffffffffff16815260200190815260200160002054905092915050565b60007fd9b67a26000000000000000000000000000000000000000000000000000000007bffffffffffffffffffffffffffffffffffffffffffffffffffffffff1916827bffffffffffffffffffffffffffffffffffffffffffffffffffffffff191614806104aa57507f0e89341c000000000000000000000000000000000000000000000000000000007bffffffffffffffffffffffffffffffffffffffffffffffffffffffff1916827bffffffffffffffffffffffffffffffffffffffffffffffffffffffff1916145b806104ba57506104b982610b59565b5b9050919050565b6104dd3384838560405180602001604052806000815250610bc3565b505050565b6060600280546104f190612ae9565b80601f016020809104026020016040519081016040528092919081815260200182805461051d90612ae9565b801561056a5780601f1061053f5761010080835404028352916020019161056a565b820191906000526020600020905b81548152906001019060200180831161054d57829003601f168201915b50505050509050919050565b6105923383600160405180602001604052806000815250610e45565b80600360003373ffffffffffffffffffffffffffffffffffffffff1673ffffffffffffffffffffffffffffffffffffffff168152602001908152602001600020600084815260200190815260200160002090805190602001906105f6929190611931565b505050565b610603610fdb565b73ffffffffffffffffffffffffffffffffffffffff168573ffffffffffffffffffffffffffffffffffffffff161480610649575061064885610643610fdb565b610a24565b5b610688576040517f08c379a000000000000000000000000000000000000000000000000000000000815260040161067f9061277f565b60405180910390fd5b6106958585858585610fe3565b5050505050565b6106b733838360405180602001604052806000815250610e45565b5050565b60006106c73383610316565b9050919050565b60608151835114610714576040517f08c379a000000000000000000000000000000000000000000000000000000000815260040161070b906127df565b60405180910390fd5b6000835167ffffffffffffffff811115610757577f4e487b7100000000000000000000000000000000000000000000000000000000600052604160045260246000fd5b6040519080825280602002602001820160405280156107855781602001602082028036833780820191505090505b50905060005b84518110156108745761081e8582815181106107d0577f4e487b7100000000000000000000000000000000000000000000000000000000600052603260045260246000fd5b6020026020010151858381518110610811577f4e487b7100000000000000000000000000000000000000000000000000000000600052603260045260246000fd5b6020026020010151610316565b828281518110610857577f4e487b7100000000000000000000000000000000000000000000000000000000600052603260045260246000fd5b6020026020010181815250508061086d90612b1b565b905061078b565b508091505092915050565b6060600360003373ffffffffffffffffffffffffffffffffffffffff1673ffffffffffffffffffffffffffffffffffffffff168152602001908152602001600020600083815260200190815260200160002080546108dc90612ae9565b80601f016020809104026020016040519081016040528092919081815260200182805461090890612ae9565b80156109555780601f1061092a57610100808354040283529160200191610955565b820191906000526020600020905b81548152906001019060200180831161093857829003601f168201915b50505050509050919050565b61097361096c610fdb565b8383611343565b5050565b60036020528160005260406000206020528060005260406000206000915091505080546109a390612ae9565b80601f01602080910402602001604051908101604052809291908181526020018280546109cf90612ae9565b8015610a1c5780601f106109f157610100808354040283529160200191610a1c565b820191906000526020600020905b8154815290600101906020018083116109ff57829003601f168201915b505050505081565b6000600160008473ffffffffffffffffffffffffffffffffffffffff1673ffffffffffffffffffffffffffffffffffffffff16815260200190815260200160002060008373ffffffffffffffffffffffffffffffffffffffff1673ffffffffffffffffffffffffffffffffffffffff16815260200190815260200160002060009054906101000a900460ff16905092915050565b610ac0610fdb565b73ffffffffffffffffffffffffffffffffffffffff168573ffffffffffffffffffffffffffffffffffffffff161480610b065750610b0585610b00610fdb565b610a24565b5b610b45576040517f08c379a0000000000000000000000000000000000000000000000000000000008152600401610b3c9061273f565b60405180910390fd5b610b528585858585610bc3565b5050505050565b60007f01ffc9a7000000000000000000000000000000000000000000000000000000007bffffffffffffffffffffffffffffffffffffffffffffffffffffffff1916827bffffffffffffffffffffffffffffffffffffffffffffffffffffffff1916149050919050565b600073ffffffffffffffffffffffffffffffffffffffff168473ffffffffffffffffffffffffffffffffffffffff161415610c33576040517f08c379a0000000000000000000000000000000000000000000000000000000008152600401610c2a9061275f565b60405180910390fd5b6000610c3d610fdb565b9050610c5d818787610c4e886114b0565b610c57886114b0565b87611576565b600080600086815260200190815260200160002060008873ffffffffffffffffffffffffffffffffffffffff1673ffffffffffffffffffffffffffffffffffffffff16815260200190815260200160002054905083811015610cf4576040517f08c379a0000000000000000000000000000000000000000000000000000000008152600401610ceb9061279f565b60405180910390fd5b83810360008087815260200190815260200160002060008973ffffffffffffffffffffffffffffffffffffffff1673ffffffffffffffffffffffffffffffffffffffff168152602001908152602001600020819055508360008087815260200190815260200160002060008873ffffffffffffffffffffffffffffffffffffffff1673ffffffffffffffffffffffffffffffffffffffff1681526020019081526020016000206000828254610da991906129dd565b925050819055508573ffffffffffffffffffffffffffffffffffffffff168773ffffffffffffffffffffffffffffffffffffffff168373ffffffffffffffffffffffffffffffffffffffff167fc3d58168c5ae7397731d063d5bbf3d657854427343f4c083240f7aacaa2d0f628888604051610e2692919061285a565b60405180910390a4610e3c82888888888861157e565b50505050505050565b600073ffffffffffffffffffffffffffffffffffffffff168473ffffffffffffffffffffffffffffffffffffffff161415610eb5576040517f08c379a0000000000000000000000000000000000000000000000000000000008152600401610eac9061281f565b60405180910390fd5b6000610ebf610fdb565b9050610ee081600087610ed1886114b0565b610eda886114b0565b87611576565b8260008086815260200190815260200160002060008773ffffffffffffffffffffffffffffffffffffffff1673ffffffffffffffffffffffffffffffffffffffff1681526020019081526020016000206000828254610f3f91906129dd565b925050819055508473ffffffffffffffffffffffffffffffffffffffff16600073ffffffffffffffffffffffffffffffffffffffff168273ffffffffffffffffffffffffffffffffffffffff167fc3d58168c5ae7397731d063d5bbf3d657854427343f4c083240f7aacaa2d0f628787604051610fbd92919061285a565b60405180910390a4610fd48160008787878761157e565b5050505050565b600033905090565b8151835114611027576040517f08c379a000000000000000000000000000000000000000000000000000000000815260040161101e906127ff565b60405180910390fd5b600073ffffffffffffffffffffffffffffffffffffffff168473ffffffffffffffffffffffffffffffffffffffff161415611097576040517f08c379a000000000000000000000000000000000000000000000000000000000815260040161108e9061275f565b60405180910390fd5b60006110a1610fdb565b90506110b1818787878787611576565b60005b84518110156112ae5760008582815181106110f8577f4e487b7100000000000000000000000000000000000000000000000000000000600052603260045260246000fd5b60200260200101519050600085838151811061113d577f4e487b7100000000000000000000000000000000000000000000000000000000600052603260045260246000fd5b60200260200101519050600080600084815260200190815260200160002060008b73ffffffffffffffffffffffffffffffffffffffff1673ffffffffffffffffffffffffffffffffffffffff168152602001908152602001600020549050818110156111de576040517f08c379a00000000000000000000000000000000000000000000000000000000081526004016111d59061279f565b60405180910390fd5b81810360008085815260200190815260200160002060008c73ffffffffffffffffffffffffffffffffffffffff1673ffffffffffffffffffffffffffffffffffffffff168152602001908152602001600020819055508160008085815260200190815260200160002060008b73ffffffffffffffffffffffffffffffffffffffff1673ffffffffffffffffffffffffffffffffffffffff168152602001908152602001600020600082825461129391906129dd565b92505081905550505050806112a790612b1b565b90506110b4565b508473ffffffffffffffffffffffffffffffffffffffff168673ffffffffffffffffffffffffffffffffffffffff168273ffffffffffffffffffffffffffffffffffffffff167f4a39dc06d4c0dbc64b70af90fd698a233a518aa5d07e595d983b8c0526c8f7fb878760405161132592919061266b565b60405180910390a461133b81878787878761174e565b505050505050565b8173ffffffffffffffffffffffffffffffffffffffff168373ffffffffffffffffffffffffffffffffffffffff1614156113b2576040517f08c379a00000000000000000000000000000000000000000000000000000000081526004016113a9906127bf565b60405180910390fd5b80600160008573ffffffffffffffffffffffffffffffffffffffff1673ffffffffffffffffffffffffffffffffffffffff16815260200190815260200160002060008473ffffffffffffffffffffffffffffffffffffffff1673ffffffffffffffffffffffffffffffffffffffff16815260200190815260200160002060006101000a81548160ff0219169083151502179055508173ffffffffffffffffffffffffffffffffffffffff168373ffffffffffffffffffffffffffffffffffffffff167f17307eab39ab6107e8899845ad3d59bd9653f200f220920489ca2b5937696c31836040516114a391906126a2565b60405180910390a3505050565b60606000600167ffffffffffffffff8111156114f5577f4e487b7100000000000000000000000000000000000000000000000000000000600052604160045260246000fd5b6040519080825280602002602001820160405280156115235781602001602082028036833780820191505090505b5090508281600081518110611561577f4e487b7100000000000000000000000000000000000000000000000000000000600052603260045260246000fd5b60200260200101818152505080915050919050565b505050505050565b61159d8473ffffffffffffffffffffffffffffffffffffffff1661191e565b15611746578373ffffffffffffffffffffffffffffffffffffffff1663f23a6e6187878686866040518663ffffffff1660e01b81526004016115e39594939291906125ef565b602060405180830381600087803b1580156115fd57600080fd5b505af192505050801561162e57506040513d601f19601f8201168201806040525081019061162b9190611f1f565b60015b6116bd5761163a612c0f565b806116455750611682565b806040517f08c379a000000000000000000000000000000000000000000000000000000000815260040161167991906126bd565b60405180910390fd5b6040517f08c379a00000000000000000000000000000000000000000000000000000000081526004016116b4906126df565b60405180910390fd5b63f23a6e6160e01b7bffffffffffffffffffffffffffffffffffffffffffffffffffffffff1916817bffffffffffffffffffffffffffffffffffffffffffffffffffffffff191614611744576040517f08c379a000000000000000000000000000000000000000000000000000000000815260040161173b906126ff565b60405180910390fd5b505b505050505050565b61176d8473ffffffffffffffffffffffffffffffffffffffff1661191e565b15611916578373ffffffffffffffffffffffffffffffffffffffff1663bc197c8187878686866040518663ffffffff1660e01b81526004016117b3959493929190612587565b602060405180830381600087803b1580156117cd57600080fd5b505af19250505080156117fe57506040513d601f19601f820116820180604052508101906117fb9190611f1f565b60015b61188d5761180a612c0f565b806118155750611852565b806040517f08c379a000000000000000000000000000000000000000000000000000000000815260040161184991906126bd565b60405180910390fd5b6040517f08c379a0000000000000000000000000000000000000000000000000000000008152600401611884906126df565b60405180910390fd5b63bc197c8160e01b7bffffffffffffffffffffffffffffffffffffffffffffffffffffffff1916817bffffffffffffffffffffffffffffffffffffffffffffffffffffffff191614611914576040517f08c379a000000000000000000000000000000000000000000000000000000000815260040161190b906126ff565b60405180910390fd5b505b505050505050565b600080823b905060008111915050919050565b82805461193d90612ae9565b90600052602060002090601f01602090048101928261195f57600085556119a6565b82601f1061197857805160ff19168380011785556119a6565b828001600101855582156119a6579182015b828111156119a557825182559160200191906001019061198a565b5b5090506119b391906119b7565b5090565b5b808211156119d05760008160009055506001016119b8565b5090565b60006119e76119e2846128b4565b612883565b90508083825260208201905082856020860282011115611a0657600080fd5b60005b85811015611a365781611a1c8882611b28565b845260208401935060208301925050600181019050611a09565b5050509392505050565b6000611a53611a4e846128e0565b612883565b90508083825260208201905082856020860282011115611a7257600080fd5b60005b85811015611aa25781611a888882611c24565b845260208401935060208301925050600181019050611a75565b5050509392505050565b6000611abf611aba8461290c565b612883565b905082815260208101848484011115611ad757600080fd5b611ae2848285612aa7565b509392505050565b6000611afd611af88461293c565b612883565b905082815260208101848484011115611b1557600080fd5b611b20848285612aa7565b509392505050565b600081359050611b3781612cc5565b92915050565b600082601f830112611b4e57600080fd5b8135611b5e8482602086016119d4565b91505092915050565b600082601f830112611b7857600080fd5b8135611b88848260208601611a40565b91505092915050565b600081359050611ba081612cdc565b92915050565b600081359050611bb581612cf3565b92915050565b600081519050611bca81612cf3565b92915050565b600082601f830112611be157600080fd5b8135611bf1848260208601611aac565b91505092915050565b600082601f830112611c0b57600080fd5b8135611c1b848260208601611aea565b91505092915050565b600081359050611c3381612d0a565b92915050565b60008060408385031215611c4c57600080fd5b6000611c5a85828601611b28565b9250506020611c6b85828601611b28565b9150509250929050565b600080600080600060a08688031215611c8d57600080fd5b6000611c9b88828901611b28565b9550506020611cac88828901611b28565b945050604086013567ffffffffffffffff811115611cc957600080fd5b611cd588828901611b67565b935050606086013567ffffffffffffffff811115611cf257600080fd5b611cfe88828901611b67565b925050608086013567ffffffffffffffff811115611d1b57600080fd5b611d2788828901611bd0565b9150509295509295909350565b600080600080600060a08688031215611d4c57600080fd5b6000611d5a88828901611b28565b9550506020611d6b88828901611b28565b9450506040611d7c88828901611c24565b9350506060611d8d88828901611c24565b925050608086013567ffffffffffffffff811115611daa57600080fd5b611db688828901611bd0565b9150509295509295909350565b60008060408385031215611dd657600080fd5b6000611de485828601611b28565b9250506020611df585828601611b91565b9150509250929050565b60008060408385031215611e1257600080fd5b6000611e2085828601611b28565b9250506020611e3185828601611c24565b9150509250929050565b600080600060608486031215611e5057600080fd5b6000611e5e86828701611b28565b9350506020611e6f86828701611c24565b9250506040611e8086828701611c24565b9150509250925092565b60008060408385031215611e9d57600080fd5b600083013567ffffffffffffffff811115611eb757600080fd5b611ec385828601611b3d565b925050602083013567ffffffffffffffff811115611ee057600080fd5b611eec85828601611b67565b9150509250929050565b600060208284031215611f0857600080fd5b6000611f1684828501611ba6565b91505092915050565b600060208284031215611f3157600080fd5b6000611f3f84828501611bbb565b91505092915050565b600060208284031215611f5a57600080fd5b6000611f6884828501611c24565b91505092915050565b60008060408385031215611f8457600080fd5b6000611f9285828601611c24565b925050602083013567ffffffffffffffff811115611faf57600080fd5b611fbb85828601611bfa565b9150509250929050565b60008060408385031215611fd857600080fd5b6000611fe685828601611c24565b9250506020611ff785828601611c24565b9150509250929050565b600061200d8383612569565b60208301905092915050565b61202281612a33565b82525050565b60006120338261297c565b61203d81856129aa565b93506120488361296c565b8060005b838110156120795781516120608882612001565b975061206b8361299d565b92505060018101905061204c565b5085935050505092915050565b61208f81612a45565b82525050565b60006120a082612987565b6120aa81856129bb565b93506120ba818560208601612ab6565b6120c381612bf1565b840191505092915050565b60006120d982612992565b6120e381856129cc565b93506120f3818560208601612ab6565b6120fc81612bf1565b840191505092915050565b60006121146034836129cc565b91507f455243313135353a207472616e7366657220746f206e6f6e204552433131353560008301527f526563656976657220696d706c656d656e7465720000000000000000000000006020830152604082019050919050565b600061217a6028836129cc565b91507f455243313135353a204552433131353552656365697665722072656a6563746560008301527f6420746f6b656e730000000000000000000000000000000000000000000000006020830152604082019050919050565b60006121e0602b836129cc565b91507f455243313135353a2062616c616e636520717565727920666f7220746865207a60008301527f65726f20616464726573730000000000000000000000000000000000000000006020830152604082019050919050565b60006122466029836129cc565b91507f455243313135353a2063616c6c6572206973206e6f74206f776e6572206e6f7260008301527f20617070726f76656400000000000000000000000000000000000000000000006020830152604082019050919050565b60006122ac6025836129cc565b91507f455243313135353a207472616e7366657220746f20746865207a65726f20616460008301527f64726573730000000000000000000000000000000000000000000000000000006020830152604082019050919050565b60006123126032836129cc565b91507f455243313135353a207472616e736665722063616c6c6572206973206e6f742060008301527f6f776e6572206e6f7220617070726f76656400000000000000000000000000006020830152604082019050919050565b6000612378602a836129cc565b91507f455243313135353a20696e73756666696369656e742062616c616e636520666f60008301527f72207472616e73666572000000000000000000000000000000000000000000006020830152604082019050919050565b60006123de6029836129cc565b91507f455243313135353a2073657474696e6720617070726f76616c2073746174757360008301527f20666f722073656c6600000000000000000000000000000000000000000000006020830152604082019050919050565b60006124446029836129cc565b91507f455243313135353a206163636f756e747320616e6420696473206c656e67746860008301527f206d69736d6174636800000000000000000000000000000000000000000000006020830152604082019050919050565b60006124aa6028836129cc565b91507f455243313135353a2069647320616e6420616d6f756e7473206c656e6774682060008301527f6d69736d617463680000000000000000000000000000000000000000000000006020830152604082019050919050565b60006125106021836129cc565b91507f455243313135353a206d696e7420746f20746865207a65726f2061646472657360008301527f73000000000000000000000000000000000000000000000000000000000000006020830152604082019050919050565b61257281612a9d565b82525050565b61258181612a9d565b82525050565b600060a08201905061259c6000830188612019565b6125a96020830187612019565b81810360408301526125bb8186612028565b905081810360608301526125cf8185612028565b905081810360808301526125e38184612095565b90509695505050505050565b600060a0820190506126046000830188612019565b6126116020830187612019565b61261e6040830186612578565b61262b6060830185612578565b818103608083015261263d8184612095565b90509695505050505050565b600060208201905081810360008301526126638184612028565b905092915050565b600060408201905081810360008301526126858185612028565b905081810360208301526126998184612028565b90509392505050565b60006020820190506126b76000830184612086565b92915050565b600060208201905081810360008301526126d781846120ce565b905092915050565b600060208201905081810360008301526126f881612107565b9050919050565b600060208201905081810360008301526127188161216d565b9050919050565b60006020820190508181036000830152612738816121d3565b9050919050565b6000602082019050818103600083015261275881612239565b9050919050565b600060208201905081810360008301526127788161229f565b9050919050565b6000602082019050818103600083015261279881612305565b9050919050565b600060208201905081810360008301526127b88161236b565b9050919050565b600060208201905081810360008301526127d8816123d1565b9050919050565b600060208201905081810360008301526127f881612437565b9050919050565b600060208201905081810360008301526128188161249d565b9050919050565b6000602082019050818103600083015261283881612503565b9050919050565b60006020820190506128546000830184612578565b92915050565b600060408201905061286f6000830185612578565b61287c6020830184612578565b9392505050565b6000604051905081810181811067ffffffffffffffff821117156128aa576128a9612bc2565b5b8060405250919050565b600067ffffffffffffffff8211156128cf576128ce612bc2565b5b602082029050602081019050919050565b600067ffffffffffffffff8211156128fb576128fa612bc2565b5b602082029050602081019050919050565b600067ffffffffffffffff82111561292757612926612bc2565b5b601f19601f8301169050602081019050919050565b600067ffffffffffffffff82111561295757612956612bc2565b5b601f19601f8301169050602081019050919050565b6000819050602082019050919050565b600081519050919050565b600081519050919050565b600081519050919050565b6000602082019050919050565b600082825260208201905092915050565b600082825260208201905092915050565b600082825260208201905092915050565b60006129e882612a9d565b91506129f383612a9d565b9250827fffffffffffffffffffffffffffffffffffffffffffffffffffffffffffffffff03821115612a2857612a27612b64565b5b828201905092915050565b6000612a3e82612a7d565b9050919050565b60008115159050919050565b60007fffffffff0000000000000000000000000000000000000000000000000000000082169050919050565b600073ffffffffffffffffffffffffffffffffffffffff82169050919050565b6000819050919050565b82818337600083830152505050565b60005b83811015612ad4578082015181840152602081019050612ab9565b83811115612ae3576000848401525b50505050565b60006002820490506001821680612b0157607f821691505b60208210811415612b1557612b14612b93565b5b50919050565b6000612b2682612a9d565b91507fffffffffffffffffffffffffffffffffffffffffffffffffffffffffffffffff821415612b5957612b58612b64565b5b600182019050919050565b7f4e487b7100000000000000000000000000000000000000000000000000000000600052601160045260246000fd5b7f4e487b7100000000000000000000000000000000000000000000000000000000600052602260045260246000fd5b7f4e487b7100000000000000000000000000000000000000000000000000000000600052604160045260246000fd5b6000601f19601f8301169050919050565b60008160e01c9050919050565b600060443d1015612c1f57612cc2565b60046000803e612c30600051612c02565b6308c379a08114612c415750612cc2565b60405160043d036004823e80513d602482011167ffffffffffffffff82111715612c6d57505050612cc2565b808201805167ffffffffffffffff811115612c8c575050505050612cc2565b8060208301013d8501811115612ca757505050505050612cc2565b612cb082612bf1565b60208401016040528296505050505050505b90565b612cce81612a33565b8114612cd957600080fd5b50565b612ce581612a45565b8114612cf057600080fd5b50565b612cfc81612a51565b8114612d0757600080fd5b50565b612d1381612a9d565b8114612d1e57600080fd5b5056fea264697066735822122052bfacaecdb4103ed6c2c6ac8d87637bbb8f31c69c2e9f8fa3ff1dd099f2709b64736f6c6343000800003368747470733a2f2f67616d652e6578616d706c652f6170692f6974656d2f7b69647d2e6a736f6e",
  "immutableReferences": {},
  "source": "pragma solidity ^0.8.0;\n\nimport \"@openzeppelin/contracts/token/ERC1155/ERC1155.sol\";\n\n\n\ncontract Tokens is ERC1155{\n    mapping(address => mapping(uint=>string)) public nftlist;\n    constructor() public ERC1155(\"https://game.example/api/item/{id}.json\"){\n\n    }\n    function mintCoins(uint _id, uint _amount) public {\n        _mint(msg.sender, _id, _amount, \"\");\n        \n    }\n    \n    function mintNFT(uint _tokenId, string memory _message) public {\n        _mint(msg.sender, _tokenId, 1, \"\");\n        nftlist[msg.sender][_tokenId] = _message;\n    }\n\n    function transfer(address _to,uint _amount,uint _id) public {\n        _safeTransferFrom(msg.sender, _to, _id, _amount,\"\");\n    }\n    function balance(uint _id) public view returns(uint){\n        return(balanceOf(msg.sender,_id));\n    }\n    function getNFT(uint _tokenId) external view returns(string memory){\n        return(nftlist[msg.sender][_tokenId]);\n    }\n}\n\n",
  "sourcePath": "/home/neo/Desktop/ERC/contracts/Token.sol",
  "compiler": {
    "name": "solc",
    "version": "0.8.0+commit.c7dfd78e.Emscripten.clang"
  },
  "schemaVersion": "3.4.4",
  "updatedAt": "2022-01-15T14:41:17.460Z",
  "devdoc": {
    "kind": "dev",
    "methods": {
      "balanceOf(address,uint256)": {
        "details": "See {IERC1155-balanceOf}. Requirements: - `account` cannot be the zero address."
      },
      "balanceOfBatch(address[],uint256[])": {
        "details": "See {IERC1155-balanceOfBatch}. Requirements: - `accounts` and `ids` must have the same length."
      },
      "isApprovedForAll(address,address)": {
        "details": "See {IERC1155-isApprovedForAll}."
      },
      "safeBatchTransferFrom(address,address,uint256[],uint256[],bytes)": {
        "details": "See {IERC1155-safeBatchTransferFrom}."
      },
      "safeTransferFrom(address,address,uint256,uint256,bytes)": {
        "details": "See {IERC1155-safeTransferFrom}."
      },
      "setApprovalForAll(address,bool)": {
        "details": "See {IERC1155-setApprovalForAll}."
      },
      "supportsInterface(bytes4)": {
        "details": "See {IERC165-supportsInterface}."
      },
      "uri(uint256)": {
        "details": "See {IERC1155MetadataURI-uri}. This implementation returns the same URI for *all* token types. It relies on the token type ID substitution mechanism https://eips.ethereum.org/EIPS/eip-1155#metadata[defined in the EIP]. Clients calling this function must replace the `\\{id\\}` substring with the actual token type ID."
      }
    },
    "version": 1
  },
  "userdoc": {
    "kind": "user",
    "methods": {},
    "version": 1
  }
}